:020000040000FA
:020000000528D1
:06000A00831603178801B4
:10001000890183160313FF30850086018701803034
:1000200088000F3089008312031385018601870140
:1000300088018901A001A101091C5228891C5E28A0
:10004000091D4028881F25281C2886012108200218
:10005000A3000F396A208800230E0F396A20870019
:100060002108200203181C2806172309013EA400BA
:100070000F396A208800240E0F396A2087001C2857
:10008000860121082007A2000F396A208800220E6D
:100090000F396A20870021082007031C1C288614BA
:1000A00006151C2886010508A00020080F396A20C3
:1000B0008800200E0F396A2087001C288601050859
:1000C000A10021080F396A208800210E0F396A200B
:1000D00087001C2882073F3406345B344F34663473
:1000E0006D347D3407347F346F3477347C34393465
:0600F0005E347934713426
:02400E00F4209C
:02401000FF3F70
:00000001FF
