:020000040000FA
:020000000528D1
:06000A00831603178801B4
:10001000890183160313FF30850086018701803034
:1000200088000F3089008312031385018601870140
:1000300088018901A001A101091C2128891C2C2803
:100040001C280508A00020080F3937208800200E42
:100050000F39372087001C280508A10021080F3917
:1000600037208800210E0F39372087001C2882078F
:100070003F3406345B344F3466346D347D3407349A
:100080007F346F3477347C3439345E34793471346E
:02400E00F4209C
:02401000FF3F70
:00000001FF
