:020000040000FA
:020000000528D1
:06000A00831603178801B4
:10001000890183160313FF30850086018701803034
:1000200088000F3089008312031385018601870140
:1000300088018901A001A101091C3528891C4128DA
:10004000091D23281C28860121082007A2000F393A
:100050004D208800220E0F394D20870021082007EF
:10006000031C1C28861406151C2886010508A00000
:1000700020080F394D208800200E0F394D208700B1
:100080001C2886010508A10021080F394D20880091
:10009000210E0F394D2087001C2882073F3406347B
:1000A0005B344F3466346D347D3407347F346F34C1
:0C00B00077347C3439345E347934713498
:02400E00F4209C
:02401000FF3F70
:00000001FF
